{
  "_format": "hh-sol-artifact-1",
  "contractName": "PengelolaanZakat",
  "sourceName": "contracts/PengelolaanZakat.sol",
  "abi": [
    {
      "inputs": [
        {
          "internalType": "address",
          "name": "_adminKeuangan",
          "type": "address"
        },
        {
          "internalType": "address",
          "name": "_akunPemerintah",
          "type": "address"
        },
        {
          "internalType": "address",
          "name": "_akunPenyaluran",
          "type": "address"
        },
        {
          "internalType": "address payable",
          "name": "_dompetPenyaluran",
          "type": "address"
        }
      ],
      "stateMutability": "nonpayable",
      "type": "constructor"
    },
    {
      "anonymous": false,
      "inputs": [
        {
          "indexed": true,
          "internalType": "address",
          "name": "muzakki",
          "type": "address"
        },
        {
          "indexed": false,
          "internalType": "uint256",
          "name": "nominal",
          "type": "uint256"
        },
        {
          "indexed": false,
          "internalType": "string",
          "name": "tipeDana",
          "type": "string"
        },
        {
          "indexed": false,
          "internalType": "uint256",
          "name": "timestamp",
          "type": "uint256"
        }
      ],
      "name": "DepositZIS",
      "type": "event"
    },
    {
      "anonymous": false,
      "inputs": [
        {
          "indexed": true,
          "internalType": "address",
          "name": "admin",
          "type": "address"
        },
        {
          "indexed": false,
          "internalType": "uint256",
          "name": "nominal",
          "type": "uint256"
        },
        {
          "indexed": false,
          "internalType": "address",
          "name": "tujuan",
          "type": "address"
        },
        {
          "indexed": false,
          "internalType": "uint256",
          "name": "timestamp",
          "type": "uint256"
        }
      ],
      "name": "PencairanDana",
      "type": "event"
    },
    {
      "anonymous": false,
      "inputs": [
        {
          "indexed": true,
          "internalType": "address",
          "name": "akunLama",
          "type": "address"
        },
        {
          "indexed": true,
          "internalType": "address",
          "name": "akunBaru",
          "type": "address"
        },
        {
          "indexed": false,
          "internalType": "uint256",
          "name": "timestamp",
          "type": "uint256"
        }
      ],
      "name": "UpdateAkunPenyaluran",
      "type": "event"
    },
    {
      "anonymous": false,
      "inputs": [
        {
          "indexed": true,
          "internalType": "address",
          "name": "dompetLama",
          "type": "address"
        },
        {
          "indexed": true,
          "internalType": "address",
          "name": "dompetBaru",
          "type": "address"
        },
        {
          "indexed": false,
          "internalType": "uint256",
          "name": "timestamp",
          "type": "uint256"
        }
      ],
      "name": "UpdateDompetPenyaluran",
      "type": "event"
    },
    {
      "inputs": [],
      "name": "adminKeuangan",
      "outputs": [
        {
          "internalType": "address",
          "name": "",
          "type": "address"
        }
      ],
      "stateMutability": "view",
      "type": "function"
    },
    {
      "inputs": [],
      "name": "akunPemerintah",
      "outputs": [
        {
          "internalType": "address",
          "name": "",
          "type": "address"
        }
      ],
      "stateMutability": "view",
      "type": "function"
    },
    {
      "inputs": [],
      "name": "akunPenyaluran",
      "outputs": [
        {
          "internalType": "address",
          "name": "",
          "type": "address"
        }
      ],
      "stateMutability": "view",
      "type": "function"
    },
    {
      "inputs": [
        {
          "internalType": "string",
          "name": "_tipeDana",
          "type": "string"
        }
      ],
      "name": "bayarZIS",
      "outputs": [],
      "stateMutability": "payable",
      "type": "function"
    },
    {
      "inputs": [
        {
          "internalType": "uint256",
          "name": "_nominal",
          "type": "uint256"
        }
      ],
      "name": "cairkanDana",
      "outputs": [],
      "stateMutability": "nonpayable",
      "type": "function"
    },
    {
      "inputs": [],
      "name": "dompetPenyaluran",
      "outputs": [
        {
          "internalType": "address payable",
          "name": "",
          "type": "address"
        }
      ],
      "stateMutability": "view",
      "type": "function"
    },
    {
      "inputs": [],
      "name": "getSaldoBrankas",
      "outputs": [
        {
          "internalType": "uint256",
          "name": "",
          "type": "uint256"
        }
      ],
      "stateMutability": "view",
      "type": "function"
    },
    {
      "inputs": [
        {
          "internalType": "bool",
          "name": "_status",
          "type": "bool"
        }
      ],
      "name": "setStatusSistem",
      "outputs": [],
      "stateMutability": "nonpayable",
      "type": "function"
    },
    {
      "inputs": [],
      "name": "sistemAktif",
      "outputs": [
        {
          "internalType": "bool",
          "name": "",
          "type": "bool"
        }
      ],
      "stateMutability": "view",
      "type": "function"
    },
    {
      "inputs": [
        {
          "internalType": "address",
          "name": "_akunBaru",
          "type": "address"
        }
      ],
      "name": "updateAkunPenyaluran",
      "outputs": [],
      "stateMutability": "nonpayable",
      "type": "function"
    },
    {
      "inputs": [
        {
          "internalType": "address payable",
          "name": "_dompetBaru",
          "type": "address"
        }
      ],
      "name": "updateDompetPenyaluran",
      "outputs": [],
      "stateMutability": "nonpayable",
      "type": "function"
    }
  ],
  "bytecode": "0x60806040526001600360146101000a81548160ff02191690831515021790555034801561002b57600080fd5b5060405161175c38038061175c833981810160405281019061004d91906101fa565b836000806101000a81548173ffffffffffffffffffffffffffffffffffffffff021916908373ffffffffffffffffffffffffffffffffffffffff16021790555082600160006101000a81548173ffffffffffffffffffffffffffffffffffffffff021916908373ffffffffffffffffffffffffffffffffffffffff16021790555081600260006101000a81548173ffffffffffffffffffffffffffffffffffffffff021916908373ffffffffffffffffffffffffffffffffffffffff16021790555080600360006101000a81548173ffffffffffffffffffffffffffffffffffffffff021916908373ffffffffffffffffffffffffffffffffffffffff16021790555050505050610261565b600080fd5b600073ffffffffffffffffffffffffffffffffffffffff82169050919050565b60006101898261015e565b9050919050565b6101998161017e565b81146101a457600080fd5b50565b6000815190506101b681610190565b92915050565b60006101c78261015e565b9050919050565b6101d7816101bc565b81146101e257600080fd5b50565b6000815190506101f4816101ce565b92915050565b6000806000806080858703121561021457610213610159565b5b6000610222878288016101a7565b9450506020610233878288016101a7565b9350506040610244878288016101a7565b9250506060610255878288016101e5565b91505092959194509250565b6114ec806102706000396000f3fe60806040526004361061009c5760003560e01c80636d5d6b65116100645780636d5d6b6514610169578063998b5520146101925780639a85dfcb146101bb578063c38d78c7146101e6578063e34b788a14610211578063f18196101461023a5761009c565b806308079648146100a15780630852cf60146100cc57806316ac4df6146100f7578063484d3ef014610122578063672a5adf1461014d575b600080fd5b3480156100ad57600080fd5b506100b6610263565b6040516100c39190610ba9565b60405180910390f35b3480156100d857600080fd5b506100e1610287565b6040516100ee9190610ba9565b60405180910390f35b34801561010357600080fd5b5061010c6102ad565b6040516101199190610be5565b60405180910390f35b34801561012e57600080fd5b506101376102d3565b6040516101449190610c19565b60405180910390f35b61016760048036038101906101629190610d8e565b6102db565b005b34801561017557600080fd5b50610190600480360381019061018b9190610e03565b6103c2565b005b34801561019e57600080fd5b506101b960048036038101906101b49190610e5c565b6105c2565b005b3480156101c757600080fd5b506101d0610822565b6040516101dd9190610ba9565b60405180910390f35b3480156101f257600080fd5b506101fb610848565b6040516102089190610ea4565b60405180910390f35b34801561021d57600080fd5b5061023860048036038101906102339190610eeb565b61085b565b005b34801561024657600080fd5b50610261600480360381019061025c9190610f44565b610abb565b005b60008054906101000a900473ffffffffffffffffffffffffffffffffffffffff1681565b600160009054906101000a900473ffffffffffffffffffffffffffffffffffffffff1681565b600360009054906101000a900473ffffffffffffffffffffffffffffffffffffffff1681565b600047905090565b600360149054906101000a900460ff1661032a576040517f08c379a000000000000000000000000000000000000000000000000000000000815260040161032190610ff4565b60405180910390fd5b6000341161036d576040517f08c379a000000000000000000000000000000000000000000000000000000000815260040161036490611060565b60405180910390fd5b3373ffffffffffffffffffffffffffffffffffffffff167f1f3c9ea86fce8e1c16fa56f8cbaf2b0016800162b91e4a154f1e3f2b96a5925c3483426040516103b7939291906110ee565b60405180910390a250565b60008054906101000a900473ffffffffffffffffffffffffffffffffffffffff1673ffffffffffffffffffffffffffffffffffffffff163373ffffffffffffffffffffffffffffffffffffffff1614610450576040517f08c379a000000000000000000000000000000000000000000000000000000000815260040161044790611178565b60405180910390fd5b600360149054906101000a900460ff1661049f576040517f08c379a000000000000000000000000000000000000000000000000000000000815260040161049690610ff4565b60405180910390fd5b804710156104e2576040517f08c379a00000000000000000000000000000000000000000000000000000000081526004016104d9906111e4565b60405180910390fd5b600360009054906101000a900473ffffffffffffffffffffffffffffffffffffffff1673ffffffffffffffffffffffffffffffffffffffff166108fc829081150290604051600060405180830381858888f1935050505015801561054a573d6000803e3d6000fd5b503373ffffffffffffffffffffffffffffffffffffffff167f04657669f8d94696302e2b161ef07ae5f8290e18ffbbda58cbef0b3ceb8597cb82600360009054906101000a900473ffffffffffffffffffffffffffffffffffffffff16426040516105b793929190611263565b60405180910390a250565b600160009054906101000a900473ffffffffffffffffffffffffffffffffffffffff1673ffffffffffffffffffffffffffffffffffffffff163373ffffffffffffffffffffffffffffffffffffffff1614610652576040517f08c379a0000000000000000000000000000000000000000000000000000000008152600401610649906112e6565b60405180910390fd5b600073ffffffffffffffffffffffffffffffffffffffff168173ffffffffffffffffffffffffffffffffffffffff16036106c1576040517f08c379a00000000000000000000000000000000000000000000000000000000081526004016106b890611352565b60405180910390fd5b600260009054906101000a900473ffffffffffffffffffffffffffffffffffffffff1673ffffffffffffffffffffffffffffffffffffffff168173ffffffffffffffffffffffffffffffffffffffff1603610751576040517f08c379a0000000000000000000000000000000000000000000000000000000008152600401610748906113be565b60405180910390fd5b6000600260009054906101000a900473ffffffffffffffffffffffffffffffffffffffff16905081600260006101000a81548173ffffffffffffffffffffffffffffffffffffffff021916908373ffffffffffffffffffffffffffffffffffffffff1602179055508173ffffffffffffffffffffffffffffffffffffffff168173ffffffffffffffffffffffffffffffffffffffff167ffa2103da363655c2056d23cfb5f87207ae213a654d731d702ff3f02630d697bb426040516108169190610c19565b60405180910390a35050565b600260009054906101000a900473ffffffffffffffffffffffffffffffffffffffff1681565b600360149054906101000a900460ff1681565b600160009054906101000a900473ffffffffffffffffffffffffffffffffffffffff1673ffffffffffffffffffffffffffffffffffffffff163373ffffffffffffffffffffffffffffffffffffffff16146108eb576040517f08c379a00000000000000000000000000000000000000000000000000000000081526004016108e2906112e6565b60405180910390fd5b600073ffffffffffffffffffffffffffffffffffffffff168173ffffffffffffffffffffffffffffffffffffffff160361095a576040517f08c379a00000000000000000000000000000000000000000000000000000000081526004016109519061142a565b60405180910390fd5b600360009054906101000a900473ffffffffffffffffffffffffffffffffffffffff1673ffffffffffffffffffffffffffffffffffffffff168173ffffffffffffffffffffffffffffffffffffffff16036109ea576040517f08c379a00000000000000000000000000000000000000000000000000000000081526004016109e190611496565b60405180910390fd5b6000600360009054906101000a900473ffffffffffffffffffffffffffffffffffffffff16905081600360006101000a81548173ffffffffffffffffffffffffffffffffffffffff021916908373ffffffffffffffffffffffffffffffffffffffff1602179055508173ffffffffffffffffffffffffffffffffffffffff168173ffffffffffffffffffffffffffffffffffffffff167f2be91ba9101f556fa55674461d0f894786497541ee64b5a8b600904dd4ff232142604051610aaf9190610c19565b60405180910390a35050565b600160009054906101000a900473ffffffffffffffffffffffffffffffffffffffff1673ffffffffffffffffffffffffffffffffffffffff163373ffffffffffffffffffffffffffffffffffffffff1614610b4b576040517f08c379a0000000000000000000000000000000000000000000000000000000008152600401610b42906112e6565b60405180910390fd5b80600360146101000a81548160ff02191690831515021790555050565b600073ffffffffffffffffffffffffffffffffffffffff82169050919050565b6000610b9382610b68565b9050919050565b610ba381610b88565b82525050565b6000602082019050610bbe6000830184610b9a565b92915050565b6000610bcf82610b68565b9050919050565b610bdf81610bc4565b82525050565b6000602082019050610bfa6000830184610bd6565b92915050565b6000819050919050565b610c1381610c00565b82525050565b6000602082019050610c2e6000830184610c0a565b92915050565b6000604051905090565b600080fd5b600080fd5b600080fd5b600080fd5b6000601f19601f8301169050919050565b7f4e487b7100000000000000000000000000000000000000000000000000000000600052604160045260246000fd5b610c9b82610c52565b810181811067ffffffffffffffff82111715610cba57610cb9610c63565b5b80604052505050565b6000610ccd610c34565b9050610cd98282610c92565b919050565b600067ffffffffffffffff821115610cf957610cf8610c63565b5b610d0282610c52565b9050602081019050919050565b82818337600083830152505050565b6000610d31610d2c84610cde565b610cc3565b905082815260208101848484011115610d4d57610d4c610c4d565b5b610d58848285610d0f565b509392505050565b600082601f830112610d7557610d74610c48565b5b8135610d85848260208601610d1e565b91505092915050565b600060208284031215610da457610da3610c3e565b5b600082013567ffffffffffffffff811115610dc257610dc1610c43565b5b610dce84828501610d60565b91505092915050565b610de081610c00565b8114610deb57600080fd5b50565b600081359050610dfd81610dd7565b92915050565b600060208284031215610e1957610e18610c3e565b5b6000610e2784828501610dee565b91505092915050565b610e3981610b88565b8114610e4457600080fd5b50565b600081359050610e5681610e30565b92915050565b600060208284031215610e7257610e71610c3e565b5b6000610e8084828501610e47565b91505092915050565b60008115159050919050565b610e9e81610e89565b82525050565b6000602082019050610eb96000830184610e95565b92915050565b610ec881610bc4565b8114610ed357600080fd5b50565b600081359050610ee581610ebf565b92915050565b600060208284031215610f0157610f00610c3e565b5b6000610f0f84828501610ed6565b91505092915050565b610f2181610e89565b8114610f2c57600080fd5b50565b600081359050610f3e81610f18565b92915050565b600060208284031215610f5a57610f59610c3e565b5b6000610f6884828501610f2f565b91505092915050565b600082825260208201905092915050565b7f53697374656d20736564616e6720646962656b756b616e2073656d656e74617260008201527f6100000000000000000000000000000000000000000000000000000000000000602082015250565b6000610fde602183610f71565b9150610fe982610f82565b604082019050919050565b6000602082019050818103600083015261100d81610fd1565b9050919050565b7f4e6f6d696e616c20746964616b20626f6c6568206e6f6c000000000000000000600082015250565b600061104a601783610f71565b915061105582611014565b602082019050919050565b600060208201905081810360008301526110798161103d565b9050919050565b600081519050919050565b60005b838110156110a957808201518184015260208101905061108e565b60008484015250505050565b60006110c082611080565b6110ca8185610f71565b93506110da81856020860161108b565b6110e381610c52565b840191505092915050565b60006060820190506111036000830186610c0a565b818103602083015261111581856110b5565b90506111246040830184610c0a565b949350505050565b7f416b736573204469746f6c616b3a2048616e7961204b6575616e67616e210000600082015250565b6000611162601e83610f71565b915061116d8261112c565b602082019050919050565b6000602082019050818103600083015261119181611155565b9050919050565b7f53616c646f20746964616b2063756b7570000000000000000000000000000000600082015250565b60006111ce601183610f71565b91506111d982611198565b602082019050919050565b600060208201905081810360008301526111fd816111c1565b9050919050565b6000819050919050565b600061122961122461121f84610b68565b611204565b610b68565b9050919050565b600061123b8261120e565b9050919050565b600061124d82611230565b9050919050565b61125d81611242565b82525050565b60006060820190506112786000830186610c0a565b6112856020830185611254565b6112926040830184610c0a565b949350505050565b7f416b736573204469746f6c616b3a2048616e79612050656d6572696e74616821600082015250565b60006112d0602083610f71565b91506112db8261129a565b602082019050919050565b600060208201905081810360008301526112ff816112c3565b9050919050565b7f416c616d617420746964616b20626f6c6568206b6f736f6e6700000000000000600082015250565b600061133c601983610f71565b915061134782611306565b602082019050919050565b6000602082019050818103600083015261136b8161132f565b9050919050565b7f416b756e20737564616820646967756e616b616e000000000000000000000000600082015250565b60006113a8601483610f71565b91506113b382611372565b602082019050919050565b600060208201905081810360008301526113d78161139b565b9050919050565b7f416c616d617420746964616b20626f6c6568206b6f736f6e6720283078302900600082015250565b6000611414601f83610f71565b915061141f826113de565b602082019050919050565b6000602082019050818103600083015261144381611407565b9050919050565b7f416c616d617420646f6d70657420737564616820646967756e616b616e000000600082015250565b6000611480601d83610f71565b915061148b8261144a565b602082019050919050565b600060208201905081810360008301526114af81611473565b905091905056fea26469706673582212208d159d14062c1c739d4ca37924633df446ff348da1c3b1fd20b591b59896f4f164736f6c634300081c0033",
  "linkReferences": {},
  "deployedLinkReferences": {}
}